:020000040000FA
:10000000F52CFF3FFF3FFF3FFF00030E83018316E8
:10001000B8000A08B7008A0170088312A2007108AC
:10002000A1007208A0008C1E3428EA2470088316F0
:10003000B60083128615803070058600861B222844
:100040000617232806137F307005F2007208831606
:10005000B6007208F000F00D70107008B60070085D
:100060008312A600A70186112208F0002108F100E2
:100070002008F200831637088A00380E8300FF0E2E
:100080007F0E090000000800083083120313FC00F3
:100090002330FD00FD0B4A28FC0B4A2808001030D5
:1000A00083120313FD00FD0B532800000800831684
:1000B0000313CD1B5E2883128611602883128615D8
:1000C00083164D1B662883120611682883120615B5
:1000D0008316CD1A6E288312861070288312861418
:1000E00083164D1A76288312061078288312061478
:1000F0006F187C2806167D28061286164220861266
:100100008316CD19862883128611882883128615B6
:1001100083164D198E288312061190288312061516
:100120008316CD1896288312861098288312861479
:1001300083164D189E2883120610A02883120614D9
:100140006F18A4280616A5280612861642208612C5
:100150006F1CAC284420AD284F20080083120313E5
:10016000F801F9011030FC00710DF80DF90D74085B
:10017000F8027508031C750FF9020318C6287408E5
:10018000F80775080318750FF9070310F00DF10D46
:10019000FC0BB428080083160313CB0105304B0277
:1001A0000318D9284B084A07840020308000CB0A66
:1001B000CE284B084A0784008001CB034B084A072E
:1001C000CC000A30F400F5014808F0004908F100BD
:1001D000AE207808F0007908F1003030F00783167F
:1001E0004C088400700880000A30F400F5014808CB
:1001F000F0004908F100AE2070088316C8007108AD
:10020000C90000307106031D072900307006031D68
:100210000A290C29CB03DE280800831203136F1070
:1002200083164808CD0057206F1408008316031367
:1002300098181C2900001629480883129900080004
:1002400083120313F8010830FC00700DF80D7408D8
:10025000F80203182D29F8070310F00DFC0B2529CF
:1002600008004329803083160313BF005629C0308D
:10027000BF0056299430BF005629D430BF005629FC
:100280008030BF005629831603133F08013A031933
:1002900032293F08023A031937293F08033A031964
:1002A0003A293F08043A03193D2940294003F00048
:1002B0003F08F0077008BF007008CD0057206F108E
:1002C0008316C201420841078400000803197129FE
:1002D0004208410784000008C8000D218316C20AA5
:1002E000622983126F14080083120313FB01FA01C1
:1002F000F9018030F800F10CF00C031C8829740817
:10030000F90775080318750FFA070318FB0A03109D
:10031000F01F90297408FA0775080318750FFB077A
:10032000FB0CFA0CF90CF80C031C7B297B08F3007E
:100330007A08F2007908F1007808F0000800A5308A
:1003400083120313FD00FD0BA32900000000080029
:100350008316031333088A003208820008008316CC
:100360000313C1013F0884000008C0004008003AA0
:100370000319C5294008C80016218316C10A41087F
:100380003F0784000008C000B62908008316031345
:10039000C401C5013F08C6004008C70080304006C0
:1003A000F00080307002031DD72900303F0203188F
:1003B000E5290130C4000030C5003F08003CC600FC
:1003C0004008031C013EC701C7024608C800470891
:1003D000C9004108CA00CB200630C2000030C3006B
:1003E0004308003C031DF6294208003C0318112A6B
:1003F00042084107F20001304202F0000030031CC5
:10040000013E4302F1007008410784000008F0003B
:1004100072088400700880000130C202031CC3030C
:10042000F029410884002030800044084504031965
:100430002F2AC201C3014208410784000008203A64
:10044000031D262AC20A0319C30A1B2A0130C2024D
:10045000031CC3034208410784002D3080000800BC
:10046000193083120313FD00FD0B342A0000000035
:10047000080083160313BA1F482A83122508840034
:100480002D3080008316B909BA09B90A0319BA0ACE
:100490003908F0003A08F100F10CF00CF113F10CFE
:1004A000F00CF113F10CF00CF113F10CF00CF11352
:1004B0007008BB006430F400202170080319702A12
:1004C00025088316BE006430F4003B08F0002021AC
:1004D0003030F00783163E08840070088000752ACB
:1004E000831225088400303080008312250A831689
:1004F000BE000A30F4003B08F00020210A30F4006E
:1005000020217808F0003030F00783163E08840080
:10051000700880000230831225078316BE000A305F
:10052000F4003B08F00020217808F0003030F0079C
:1005300083163E088400700880003908BC003A0821
:10054000BD000F303905F0003A08F1000030F10528
:100550007008BC007108BD007130F4000230F50075
:10056000742170088316BC007108BD00043083122A
:1005700025078316BE00E830F4000330F500AE20F6
:100580003030F00783163E08840070088000053084
:10059000831225078316BE006430F4000030F50096
:1005A0003C08F0003D08F100AE200A30F4000030B5
:1005B000F500AE207808F0007908F1003030F0073F
:1005C00083163E08840070088000063083122507D9
:1005D0008316BE000A30F4000030F5003C08F0003D
:1005E0003D08F100AE200A30F4000030F500AE20E6
:1005F0007808F0007908F1003030F00783163E08E3
:100600008400700880000730831225078316BE001F
:100610000A30F4000030F5003C08F0003D08F1001D
:10062000AE207808F0007908F1003030F00783162A
:100630003E088400700880000230BF000530C00012
:10064000831225088316C1003121081D602B8316F3
:100650003B08BF00C001831224088316C100C621D5
:100660003C08BF003D08C000831223088316C10068
:10067000C621831226088316BF008312270883161B
:10068000C000831259088316C100C6214930BF003B
:10069000AF21831225088316BF00AF213B30BF0076
:1006A000AF21831259088316BF00AF215A30BF0013
:1006B000AF210A30C80016210D308316C80016215C
:1006C0000800831603133A08F1000130F0007108A6
:1006D00003196E2BF00D7010FF3E682B7008BE00E2
:1006E0007009BD0039088400BC01BB013B08073C10
:1006F000031C9B2B3D08800584173D088005422084
:100700003E088004422084133E080005F0000319CF
:10071000962B3B08F1000130F00071080319942B6F
:10072000F00D7010FF3E8E2B7008BC044F204F2040
:100730008316BB0A762B3C08F000080083160313CF
:100740008612061206108610061186118312861272
:1007500006128611061186100610442044204420FB
:1007600086140614861642208612442086164220DD
:1007700086124420861642208612442006108616D1
:100780004220861244208616422086128610861544
:1007900086164220861244208611061486164220B0
:1007A00086120610861642208612442086164220A3
:1007B00086120614861642208612442006108616DB
:1007C00042208612861506158614061486164220C7
:1007D000861244206F140800831603133A08F100B0
:1007E0000130F00071080319F92BF00D7010FF3E75
:1007F000F32B7008BC00F0093908840070088005EC
:100800008417700880059F2183163C088004841398
:10081000302283163C080005BB003B08003A01303B
:1008200003190030BB009F2183163B08F00008002D
:100830002A2C803083160313B9003D2CC030B90038
:100840003D2C9430B9003D2CD430B9003D2C803083
:10085000B9003D2C831603133908013A0319192CEA
:100860003908023A03191E2C3908033A0319212CBE
:100870003908043A0319242C272C3A03F0003908CC
:10088000F0077008B90083126F1470088316CD004A
:1008900057206F1083163B08CD0057206F140800B7
:1008A000831603133A08F1000130F00071080319B0
:1008B0005D2CF00D7010FF3E572C7008BE00F00943
:1008C0007008BD0039088400700880058417BC01D9
:1008D0003C08073C031C832C3C08F0003B08F1005B
:1008E00070080319772CF10CF113FF3E712C3D08B1
:1008F0008005711C7D2C3E088004302283163E0842
:100900008004BC0A682C84134F204F200800A821C3
:100910008A110A128000840AB20A0319B30AF0038A
:10092000031D872C0800831603131208013EF000F4
:10093000F1010318F10A3908F400F50174210630B9
:10094000F2007008F4007108F50072080319AD2C6C
:10095000F50CF40CF513FF3EA62C0430F1007408DE
:10096000F00071080319B82CF00D7010FF3EB22C86
:1009700030307005F3007408F0007508F100F10CD8
:10098000F00CF113F10CF00CF113700895000F301E
:100990009705730897040800831603130711831241
:1009A00012150C30970408008312031395011712D7
:1009B000971208008316031398169030831298003C
:1009C00083168717071383128C1EE92C1A08F00070
:1009D000E32C0800831203131A08F100981CF22C70
:1009E000181218167108F000080022268316031743
:1009F00088018901831287138813831603138701E3
:100A000083128701FF3083168800831288018316C2
:100A10008601FF30831286000330FB008A30FC0021
:100A20005530FD00FD0B122DFC0B122DFB0B122D72
:100A30000000000086018B170B1783168C161930E7
:100A400099001815DA248230FC00DD30FD00FD0B22
:100A5000272DFC0B272D0000000012109210C7302C
:100A600083169200D424CC248316B90193249E23A8
:100A700001308316CD0057200C308316CD0057204F
:100A800001308316BF000130C0002830C100312181
:100A900002308316B9000D30BA00DF30BB001824D5
:100AA00002308316B9000E30BA004330BB00182460
:100AB00009308316B9000230BA00EC230930B900BE
:100AC0000230BA00CC30BB00502409308316B90084
:100AD0000230BA004430BB0050242730FD00FD0B2B
:100AE0006F2D0000000009308316B9000230BA00F3
:100AF000EC230930B9000230BA00CC30BB005024DE
:100B000009308316B9000230BA00BE30BB00502451
:100B100009308316B9000230BA0061237008B400AE
:100B2000B5010930B9000230BA0061237008F20043
:100B3000F1017108B40772080318013EB50783126A
:100B4000081DB52D8030F00080303A067002031D7C
:100B5000AB2D39080A3C0318B52D83163408B900AB
:100B60003508BA003922B901BA01B90A0319BA0A1B
:100B700026088316B90093246400582DBE2DFF3F2C
:100B8000FF3FFF3FFF3FFF3F66345D34A934003431
:100B900000342034543465346D3470346534723428
:100BA000613474347534723465343A34203420340A
:100BB000203400340034003422342C3422345034B5
:100BC00057344D34443475347434793422343A34DF
:100BD000223400347B342234543465346D34703420
:100BE00072346134743475347234653422343A3476
:100BF00022340034A03422347D3400343034303494
:100C000030342E34303430343034303400343034F6
:100C1000303430342E3430343034303430340034E6
:100C20003034303430342E343034303430343034A6
:100C300000343034303430342E34303430343034C6
:100C400030340034233084004C3083120313F0001E
:100C5000C4308316B2000530B3008724A03084006E
:100C6000123083120313F00010308316B2000630E6
:100C7000B30087240800FF3FFF3FFF3FFF3FFF3FD8
:100C8000FF3FFF3FFF3FFF3FFF3FFF3FFF3FFF3F74
:100C9000FF3FFF3FFF3FFF3FFF3FFF3FFF3FFF3F64
:100CA000FF3FFF3FFF3FFF3FFF3FFF3FFF3FFF3F54
:100CB000FF3FFF3FFF3FFF3FFF3FFF3FFF3FFF3F44
:04400E00FA2FFF3F47
:00000001FF
