:020000040000FA
:10000000C52AFF3FFF3F000008000830831203139A
:10001000FC002330FD00FD0B0B28FC0B0B28080017
:10002000103083120313FD00FD0B1428000008009C
:1000300083120313E51B1E2886111F288615651BD6
:100040002328061124280615E51A282886102928B1
:100050008614651A2D2806102E2806145D183228DD
:10006000061633280612861603208612E5193A284A
:1000700086113B28861565193F280611402806156C
:10008000E518442886104528861465184928061066
:100090004A2806145D184E2806164F2806128616A2
:1000A000032086125D1C56280520572810200800C2
:1000B000831203135D106408E50018205D14080026
:1000C000A53083120313FD00FD0B6428000000001F
:1000D0000800193083120313FD00FD0B6D2800008A
:1000E0000000080083120313FB01FA01F9018030BC
:1000F000F800F10CF00C031C86287408F907750849
:100100000318750FFA070318FB0A0310F01F8E2857
:100110007408FA0775080318750FFB07FB0CFA0C37
:10012000F90CF80C031C79287B08F3007A08F2001C
:100130007908F1007808F0000800831203131A0808
:10014000F100981CA528181218167108F000080074
:100150000030831203138C1A0130F0000800831260
:1001600003135C088A005B088200080083160313EF
:100170009818BC280000B62883125E089900080071
:10018000831203135F08F1000130F00071080319B6
:10019000CD28F00D7010FF3EC7287008E300F0096D
:1001A0007008E2005E088400700880058417E10191
:1001B0006108073C031CF2286108F0006008F100A8
:1001C00070080319E728F10CF113FF3EE1286208DB
:1001D0008005711CED286308800469206308800491
:1001E000E10AD82884131020102008008316031376
:1001F0001208013EF000F1010318F10A83125E08B3
:10020000F400F50172200630F2007008F400710865
:10021000F500720803191129F50CF40CF513FF3ED3
:100220000A290430F1007408F000710803191C2930
:10023000F00D7010FF3E162930307005F300740881
:10024000F0007508F100F10CF00CF113F10CF00C5A
:10025000F113700895000F30970573089704080094
:1002600083160313861206120610861006118611D5
:1002700083128612061286110611861006100520BA
:1002800005200520861406148616032086120520F4
:100290008616032086120520861603208612052066
:1002A0000610861603208612052086160320861265
:1002B00086108615861603208612052086110614E0
:1002C0008616032086120610861603208612052045
:1002D0008616032086120614861603208612052031
:1002E0000610861603208612861506158614061437
:1002F00086160320861205205D140800831203135E
:100300005F08F1000130F000710803198B29F00D2E
:100310007010FF3E85297008E3007009E2005E0856
:100320008400E101E0016008073C031CB729620872
:100330008005841762088005032063088004032079
:10034000841363080005F0000319B3296008F10065
:100350000130F00071080319B129F00D7010FF3E53
:10036000AB297008E10410201020E00A93296108ED
:10037000F0000800CC29803083120313DE00DF294F
:10038000C030DE00DF299430DE00DF29D430DE000B
:10039000DF298030DE00DF29831203135E08013A73
:1003A0000319BB295E08023A0319C0295E08033A03
:1003B0000319C3295E08043A0319C629C9295F0332
:1003C000F0005E08F0077008DE007008E5001820F5
:1003D0005D10E10161086007840000080319F82935
:1003E0006108600784000008E4005820E10AEA2957
:1003F0005D1408008316031398169030831298003A
:1004000083168717071383128C1E092A1A08F00017
:10041000032A08008312031395011712971208008C
:10042000831203135F08F1000130F0007108031913
:100430001D2AF00D7010FF3E172A7008E100F00928
:100440005E088400700880058417700880056020AD
:10045000610880048413692061080005E0006008D9
:10046000003A013003190030E00060206008F0001D
:1004700008004B2A803083120313DE005E2AC0304E
:10048000DE005E2A9430DE005E2AD430DE005E2A72
:100490008030DE005E2A831203135E08013A0319DE
:1004A0003A2A5E08023A03193F2A5E08033A031902
:1004B000422A5E08043A0319452A482A5F03F000DD
:1004C0005E08F0077008DE005D147008E500182073
:1004D0005D106008E50018205D1408008312031306
:1004E000E201E30160080319AD2A6008FF3A03192D
:1004F0007A2AE003A8207008003A031D802A7A2A8D
:100500009D207008E10062085E078400700880008A
:10051000E20A63085F07840000086106031D922A4F
:10052000E30A9A2AE3015F08840000086106031DBC
:100530009A2AE30A63085F0784000008003A031D53
:10054000AC2A63086202F000F101031CF103700899
:100550005E0784008001B02A722A5E088400800150
:100560000800AF208A110A128000840ADB0A0319EE
:10057000DC0AF003031DB12A0800831603130711D8
:10058000831212150C3097040800CA238316031730
:100590008801890183128713881383160313870147
:1005A00083128701FF308316880083128801831627
:1005B0008601831286011930831699001815FA21D5
:1005C0008230FC00DD30FD00FD0BE42AFC0BE42A48
:1005D0000000000012109210C730831692000A2209
:1005E000BD22DE01F62030210130E50018200C305C
:1005F000E50018200130DE000130DF002030E0008F
:10060000BA210230DE000D30DF00DF30E000392299
:100610000230DE000E30DF004330E00039220930C6
:10062000DE000230DF0010220930DE000230DF0081
:10063000CC30E000C0200930DE000230DF00443062
:10064000E000C0202730FD00FD0B242B000000003F
:100650000930DE000230DF0010220930DE000230F7
:10066000DF00CC30E000C0200930DE000230DF00C7
:10067000BE30E000C0200930DE000230DF007E2105
:100680007008D500D6010930DE000230DF007E217F
:100690007008F200F1017108D50772080318013ED5
:1006A000D607A820700803198E2B5708DE00FF30EC
:1006B000DF00FF30E0006E2259085806F100710893
:1006C0005A06031D732B0630F1005808F00071081C
:1006D00003196E2BF00D7010FF3E682B700886001A
:1006E0005908DE00F6205708DE00B6205808DE0064
:1006F000B6205908DE00B6205A08DE00B6200330C6
:10070000FB008A30FC005530FD00FD0B852BFC0BF7
:10071000852BFB0B852B000000008E2B0F2B8F2BC6
:10072000FF3FFF3FFF3FFF3FFF3F2034543465341E
:100730006D347034653472346134743475347234A9
:1007400065343A34203420342034003430343034AA
:1007500030342E34303430343034303400343034AB
:10076000303430342E34303430343034303400349B
:100770003034303430342E3430343034303430345B
:1007800000343034303430342E343034303430347B
:100790003034003420308400353083120313F000ED
:1007A0009530DB000330DC00B1220800FF3FFF3F43
:1007B000FF3FFF3FFF3FFF3FFF3FFF3FFF3FFF3F49
:1007C000FF3FFF3FFF3FFF3FFF3FFF3FFF3FFF3F39
:1007D000FF3FFF3FFF3FFF3FFF3FFF3FFF3FFF3F29
:1007E000FF3FFF3FFF3FFF3FFF3FFF3FFF3FFF3F19
:04400E00F22FFF3F4F
:00000001FF
