:020000040000FA
:10000000B92CFF3FFF3F00000800083083120313A4
:10001000FC002330FD00FD0B0B28FC0B0B28080017
:10002000103083120313FD00FD0B1428000008009C
:1000300083160313C81B1F288312861121288312DD
:1000400086158316481B2728831206112928831238
:1000500006158316C81A2F2883128610312883129A
:1000600086148316481A37288312061039288312FB
:1000700006146E183D2806163E2806128616032022
:1000800086128316C81947288312861149288312BD
:100090008615831648194F2883120611512883129A
:1000A00006158316C81857288312861059288312FC
:1000B0008614831648185F2883120610612883125D
:1000C00006146E1865280616662806128616032082
:1000D00086126E1C6D2805206E28102008008312E1
:1000E0000313F801F9011030FC00710DF80DF90D42
:1000F0007408F8027508031C750FF90203188728A5
:100100007408F80775080318750FF9070310F00D48
:10011000F10DFC0B7528080083160313C60105308A
:10012000460203189A2846084507840020308000BC
:10013000C60A8F284608450784008001C603460882
:100140004507C7000A30F400F5014308F0004408F1
:10015000F1006F207808F0007908F1003030F007E6
:10016000831647088400700880000A30F400F50107
:100170004308F0004408F1006F2070088316C300A4
:100180007108C40000307106031DC82800307006D5
:10019000031DCB28CD28C6039F2808008312031314
:1001A0006E1083164308C80018206E1408008316CA
:1001B00003139818DD280000D728430883129900FC
:1001C0000800F328803083160313BA000629C030D4
:1001D000BA0006299430BA000629D430BA0006299C
:1001E0008030BA000629831603133A08013A03192E
:1001F000E2283A08023A0319E7283A08033A0319B1
:10020000EA283A08043A0319ED28F0283B03F000E5
:100210003A08F0077008BA007008C80018206E107D
:100220008316BD013D083C078400000803192129FD
:100230003D083C0784000008C300CE208316BD0A99
:10024000122983126E14080083160313BF01C00124
:100250003A08C1003B08C20080303B06F000803005
:100260007002031D352900303A020318432901307A
:10027000BF000030C0003A08003CC1003B08031C2E
:10028000013EC201C2024108C3004208C4003C084A
:10029000C5008C200630BD000030BE003E08003C8A
:1002A000031D54293D08003C03186F293D083C07F5
:1002B000F20001303D02F0000030031C013E3E021E
:1002C000F10070083C0784000008F0007208840008
:1002D000700880000130BD02031CBE034E293C089B
:1002E0008400203080003F08400403198D29BD019F
:1002F000BE013D083C0784000008203A031D842904
:10030000BD0A0319BE0A79290130BD02031CBE03D0
:100310003D083C0784002D3080000800A530831282
:100320000313FD00FD0B922900000000080083125A
:100330000313F8010830FC00700DF80D7408F80282
:100340000318A429F8070310F00DFC0B9C290800E2
:10035000193083120313FD00FD0BAC2900000000CF
:100360000800831203136B088A006A0882000800E1
:1003700083160313BC013A0884000008BB003B0845
:10038000003A0319CE293B08C300D7208316BC0AC4
:100390003C083A0784000008BB00BF29080083120C
:1003A0000313FB01FA01F9018030F800F10CF00CA5
:1003B000031CE3297408F90775080318750FFA0779
:1003C0000318FB0A0310F01FEB297408FA077508DD
:1003D0000318750FFB07FB0CFA0CF90CF80C031C47
:1003E000D6297B08F3007A08F2007908F100780832
:1003F000F0000800831603133508F1000130F00007
:1004000071080319072AF00D7010FF3E012A7008C9
:10041000B9007009B80034088400B701B601360885
:10042000073C031C342A38088005841738088005E7
:100430000320390880040320841339080005F000E4
:1004400003192F2A3608F1000130F0007108031952
:100450002D2AF00D7010FF3E272A7008B7041020D7
:1004600010208316B60A0F2A3708F00008008316FA
:100470000313B51F462A8312220884002D30800002
:100480008316B409B509B40A0319B50A3408F00093
:100490003508F100F10CF00CF113F10CF00CF11334
:1004A000F10CF00CF113F10CF00CF1137008B60024
:1004B0006430F4009721700803196E2A220883160D
:1004C000B9006430F4003608F00097213030F007AE
:1004D00083163908840070088000732A831222086A
:1004E0008400303080008312220A8316B9000A305B
:1004F000F4003608F00097210A30F40097217808BC
:10050000F0003030F007831639088400700880004E
:100510000230831222078316B9000A30F40036082D
:10052000F00097217808F0003030F0078316390882
:100530008400700880003408B7003508B8000F3018
:100540003405F0003508F1000030F1057008B700FF
:100550007108B8007130F4000230F500CF21700846
:100560008316B7007108B80004308312220783167F
:10057000B900E830F4000330F5006F203030F007A8
:100580008316390884007008800005308312220722
:100590008316B9006430F4000030F5003708F0002D
:1005A0003808F1006F200A30F4000030F5006F20A9
:1005B0007808F0007908F1003030F0078316390828
:1005C0008400700880000630831222078316B90069
:1005D0000A30F4000030F5003708F0003808F10068
:1005E0006F200A30F4000030F5006F207808F0002A
:1005F0007908F1003030F00783163908840070085C
:1006000080000730831222078316B9000A30F400F5
:100610000030F5003708F0003808F1006F20780846
:10062000F0007908F1003030F007831639088400B3
:10063000700880000230BA000530BB008312220827
:100640008316BC00E120081D5A2B83163608BA0019
:10065000BB01831221088316BC0024213708BA008D
:100660003808BB00831220088316BC0024213208FE
:10067000BA003308BB00831246088316BC0024214D
:100680003630BA00B821831222088316BA00B82186
:100690004A30BA00B821831246088316BA00B8213E
:1006A0004730BA00B8210A30C300D7200D30831676
:1006B000C300D7200800831203131A08F100981C06
:1006C000632B181218167108F00008008316031324
:1006D0003508F1000130F00071080319732BF00D9B
:1006E0007010FF3E6D2B7008B900F0097008B8005B
:1006F00034088400700880058417B7013708073C68
:10070000031C992B3708F0003608F1007008031914
:100710008D2BF10CF113FF3E872B38088005711CDF
:10072000932B39088004A821831639088004B70A5E
:100730007E2B841310201020080083160313350825
:10074000F1000130F00071080319AA2BF00D7010B0
:10075000FF3EA42B7008B700F0093408840070082D
:1007600080058417700880058E2183163708800461
:100770008413A821831637080005B6003608003A0E
:10078000013003190030B6008E2183163608F000C0
:100790000800DB2B803083160313B400EE2BC0302F
:1007A000B400EE2B9430B400EE2BD430B400EE2B1A
:1007B0008030B400EE2B831603133408013A03197A
:1007C000CA2B3408023A0319CF2B3408033A031911
:1007D000D22B3408043A0319D52BD82B3503F0005B
:1007E0003408F0077008B40083126E147008831682
:1007F000C80018206E1083163608C80018206E1422
:1008000008000030831203138C1A0130F000080036
:10081000B1218A110A128000840AEA0A0319EB0A3C
:10082000F003031D082C080083160313981690305C
:100830008312980083168717071383128C1E232CAC
:100840001A08F0001D2C0800831603131208013E3D
:10085000F000F1010318F10A3408F400F501CF218A
:100860000630F2007008F4007108F50072080319F0
:100870003E2CF50CF40CF513FF3E372C0430F10040
:100880007408F00071080319492CF00D7010FF3E38
:10089000432C30307005F3007408F0007508F10047
:1008A000F10CF00CF113F10CF00CF1137008950041
:1008B0000F309705730897040800831603138612F8
:1008C0000612061086100611861183128612061271
:1008D00086110611861006100520052005208614B5
:1008E000061486160320861205208616032086121B
:1008F0000520861603208612052006108616032082
:100900008612052086160320861286108615861606
:1009100003208612052086110614861603208612EF
:1009200006108616032086120520861603208612DE
:10093000061486160320861205200610861603204C
:10094000861286150615861406148616032086124E
:1009500005206E14080083120313950117129712D5
:100960000800831603130711831212150C30970425
:100970000800F42583160317880189018312871361
:10098000881383160313870183128701FF308316B0
:10099000880083128801831686018312860119302C
:1009A00083169900181514248230FC00DD30FD00F8
:1009B000FD0BD82CFC0BD82C00000000121092105C
:1009C000C73083169200AB24B1248316B4012424CB
:1009D0005D2401308316C80018200C308316C8002F
:1009E000182001308316BA000130BB002330BC0050
:1009F000E12002308316B4000D30B500DF30B600C0
:100A0000C92302308316B4000E30B5004330B6005F
:100A1000C92309308316B4000230B5009D23093084
:100A2000B4000230B500CC30B6006623093083161E
:100A3000B4000230B5004430B60066232730FD0014
:100A4000FD0B202D0000000009308316B400023099
:100A5000B5009D230930B4000230B500CC30B6009B
:100A6000662309308316B4000230B500BE30B600EC
:100A7000662309308316B4000230B500FA217008ED
:100A80008312EC00ED0109308316B4000230B5008A
:100A9000FA217008F200F10171088312EC07720864
:100AA0000318013EED07012470080319762D5B231E
:100AB0007008EF00803070058600861B612D0617D8
:100AC000622D06137F307005F2007208EF00720885
:100AD000F000F00D70107008EF0070088316B4007D
:100AE00024246F088316B200B301912D8312081DD0
:100AF0008E2D8030F000803035067002031D822D6F
:100B000034080A3C03188E2D6C088316B400831237
:100B10006D088316B5003722B401B501B40A031974
:100B2000B50A092D922DFF3FFF3FFF3FFF3FFF3FDB
:100B3000A934A03461342034543465346D347034B5
:100B400065347234613474347534723465343A34D3
:100B50002034203420340034003400347B342234F8
:100B6000543465346D347034723461347434753493
:100B70007234653422343A34223400345834223406
:100B80007D34003422342C342234503457344D34E4
:100B9000443475347434793422343A342234003491
:100BA0003034303430342E34303430343034303427
:100BB00000343034303430342E3430343034303447
:100BC000303400343034303430342E343034303437
:100BD0003034303400343034303430342E34303427
:100BE0003034303430340034203084004A308312C2
:100BF0000313F0009830EA000530EB000824A03021
:100C000084001230F000E230EA000530EB000824E6
:100C10000800FF3FFF3FFF3FFF3FFF3FFF3FFF3F1A
:100C2000FF3FFF3FFF3FFF3FFF3FFF3FFF3FFF3FD4
:100C3000FF3FFF3FFF3FFF3FFF3FFF3FFF3FFF3FC4
:100C4000FF3FFF3FFF3FFF3FFF3FFF3FFF3FFF3FB4
:100C5000FF3FFF3FFF3FFF3FFF3FFF3FFF3FFF3FA4
:04400E00F22FFF3F4F
:00000001FF
