:02000000C12C11
:0400060000000800EE
:10000A00083083120313FC002330FD00FD0B0B287C
:06001A00FC0B0B2808009E
:10002000103083120313FD00FD0B1428000008009C
:1000300083160313C81B1F288312861121288312DD
:1000400086158316481B2728831206112928831238
:1000500006158316C81A2F2883128610312883129A
:1000600086148316481A37288312061039288312FB
:1000700006146C183D2806163E2806128616032024
:1000800086128316C81947288312861149288312BD
:100090008615831648194F2883120611512883129A
:1000A00006158316C81857288312861059288312FC
:1000B0008614831648185F2883120610612883125D
:1000C00006146C1865280616662806128616032084
:0E00D00086126C1C6D2805206E28102008007A
:1000DE0083120313F801F9011030FC00710DF80DB5
:1000EE00F90D7408F8027508031C750FF902031850
:1000FE0087287408F80775080318750FF907031099
:0A010E00F00DF10DFC0B7528080040
:1001180083160313C6010530460203189A284608B9
:100128004507840020308000C60A8F284608450706
:1001380084008001C60346084507C7000A30F4005A
:10014800F5014308F0004408F1006F207808F0003A
:100158007908F1003030F0078316470884007008EA
:1001680080000A30F400F5014308F0004408F1006B
:100178006F2070088316C3007108C4000030710630
:10018800031DC82800307006031DCB28CD28C603E0
:040198009F28080094
:10019C00831203136C1083164308C80018206C14C8
:0201AC00080049
:1001AE00831603139818DD280000D72843088312FE
:0401BE00990008009C
:1001C200F328803083160313BA000629C030BA0020
:1001D20006299430BA000629D430BA0006298030A4
:1001E200BA000629831603133A08013A0319E228D2
:1001F2003A08023A0319E7283A08033A0319EA28A7
:100202003A08043A0319ED28F0283B03F0003A08B3
:10021200F0077008BA007008C80018206C10831626
:10022200BD013D083C0784000008031921293D084F
:100232003C0784000008C300CE208316BD0A1229A1
:0602420083126C14080099
:1002480083160313BF01C0013A08C1003B08C2006E
:1002580080303B06F00080307002031D35290030E5
:100268003A02031843290130BF000030C0003A08A1
:10027800003CC1003B08031C013EC201C202410808
:10028800C3004208C4003C08C5008C200630BD00ED
:100298000030BE003E08003C031D54293D08003CC8
:1002A80003186F293D083C07F20001303D02F000B9
:1002B8000030031C013E3E02F10070083C07840038
:1002C8000008F00072088400700880000130BD0248
:1002D800031CBE034E293C088400203080003F08E0
:1002E800400403198D29BD01BE013D083C07840067
:1002F8000008203A031D8429BD0A0319BE0A79297A
:100308000130BD02031CBE033D083C0784002D30AC
:040318008000080059
:10031C00A53083120313FD00FD0B92290000000091
:02032C000800C7
:10032E0083120313F8010830FC00700DF80D7408E9
:10033E00F8020318A429F8070310F00DFC0B9C29F2
:02034E000800A5
:10035000193083120313FD00FD0BAC2900000000CF
:02036000080093
:0E036200831203136B088A006A0882000800E9
:1003700083160313BC013A0884000008BB003B0845
:10038000003A0319CE293B08C300D7208316BC0AC4
:0E0390003C083A0784000008BB00BF290800A3
:10039E0083120313FB01FA01F9018030F800F10C0E
:1003AE00F00C031CE3297408F90775080318750F80
:1003BE00FA070318FB0A0310F01FEB297408FA075B
:1003CE0075080318750FFB07FB0CFA0CF90CF80CEB
:1003DE00031CD6297B08F3007A08F2007908F10095
:0603EE007808F000080091
:1003F400831603133508F1000130F0007108031966
:10040400072AF00D7010FF3E012A7008B900700928
:10041400B80034088400B701B6013608073C031C51
:10042400342A3808800584173808800503203908E1
:1004340080040320841339080005F00003192F2ACF
:100444003608F1000130F000710803192D2AF00D6F
:100454007010FF3E272A7008B7041020102083165E
:0A046400B60A0F2A3708F00008005E
:10046E0083160313B51F462A8312220884002D30EB
:10047E0080008316B409B509B40A0319B50A340805
:10048E00F0003508F100F10CF00CF113F10CF00C4A
:10049E00F113F10CF00CF113F10CF00CF1137008D8
:1004AE00B6006430F4009721700803196E2A2208F2
:1004BE008316B9006430F4003608F000972130300E
:1004CE00F00783163908840070088000732A83129F
:1004DE0022088400303080008312220A8316B9006D
:1004EE000A30F4003608F00097210A30F400972104
:1004FE007808F0003030F007831639088400700851
:10050E0080000230831222078316B9000A30F400ED
:10051E003608F00097217808F0003030F007831687
:10052E0039088400700880003408B7003508B80018
:10053E000F303405F0003508F1000030F105700879
:10054E00B7007108B8007130F4000230F500CF2109
:10055E0070088316B7007108B800043083122207A2
:10056E008316B900E830F4000330F5006F20303008
:10057E00F007831639088400700880000530831256
:10058E0022078316B9006430F4000030F5003708F6
:10059E00F0003808F1006F200A30F4000030F5004A
:1005AE006F207808F0007908F1003030F0078316DC
:1005BE0039088400700880000630831222078316E3
:1005CE00B9000A30F4000030F5003708F0003808A2
:1005DE00F1006F200A30F4000030F5006F2078082B
:1005EE00F0007908F1003030F007831639088400E6
:1005FE00700880000730831222078316B9000A3074
:10060E00F4000030F5003708F0003808F1006F20D4
:10061E007808F0007908F1003030F00783163908B9
:10062E008400700880000230BA000530BB008312CF
:10063E0022088316BC00E120081D622B83163608A3
:10064E00BA00BB01831221088316BC00242137088F
:10065E00BA003808BB00831220088316BC00242180
:10066E003208BA003308BB00831244088316BC005C
:10067E0024213430BA00B821831221088316BA001F
:10068E00B8215630BA00B821831220088316BA005A
:10069E00B8214830BA00B821831244088316BA0034
:1006AE00B8214530BA00B8210A30C300D7200D302A
:0806BE008316C300D7200800D9
:1006C600831203131A08F100981C6B2B18121816C4
:0606D6007108F0000800AD
:1006DC00831603133508F1000130F000710803197B
:1006EC007B2BF00D7010FF3E752B7008B900F009D4
:1006FC007008B80034088400700880058417B701AE
:10070C003708073C031CA12B3708F0003608F10012
:10071C0070080319952BF10CF113FF3E8F2B380841
:10072C008005711C9B2B39088004A821831639087D
:0E073C008004B70A862B8413102010200800BA
:10074A00831603133508F1000130F000710803190C
:10075A00B22BF00D7010FF3EAC2B7008B700F009F9
:10076A0034088400700880058417700880058E217B
:10077A008316370880048413A821831637080005D6
:10078A00B6003608003A013003190030B6008E214F
:08079A0083163608F000080088
:1007A200E32B803083160313B400F62BC030B40061
:1007B200F62B9430B400F62BD430B400F62B8030F4
:1007C200B400F62B831603133408013A0319D22B13
:1007D2003408023A0319D72B3408033A0319DA2BE7
:1007E2003408043A0319DD2BE02B3503F0003408FA
:1007F200F0077008B40083126C1470088316C800E6
:1008020018206C1083163608C80018206C140800D3
:0E0812000030831203138C1A0130F00008002E
:10082000B1218A110A128000840AEA0A0319EB0A2C
:08083000F003031D102C080069
:10083800831603139816903083129800831687172F
:10084800071383128C1E2B2C1A08F000252C080085
:10085800831603131208013EF000F1010318F10A90
:100868003408F400F501CF210630F2007008F400D6
:100878007108F50072080319462CF50CF40CF513F1
:10088800FF3E3F2C0430F1007408F0007108031992
:10089800512CF00D7010FF3E4B2C30307005F300DA
:1008A8007408F0007508F100F10CF00CF113F10C6C
:1008B800F00CF113700895000F3097057308970432
:0208C800080026
:1008CA008316031386120612061086100611861165
:1008DA00831286120612861106118610061005204A
:1008EA000520052086140614861603208612052084
:1008FA0086160320861205208616032086120520F6
:10090A0006108616032086120520861603208612F4
:10091A00861086158616032086120520861106146F
:10092A0086160320861206108616032086120520D4
:10093A0086160320861206148616032086120520C0
:10094A0006108616032086128615061586140614C6
:0C095A0086160320861205206C1408008D
:0C0966008312031395011712971208006A
:10097200831603130711831212150C309704080013
:10098200E6258316031788018901831287138813CA
:1009920083160313870183128701FF3083168800B1
:1009A2008312880183168601831286011930831609
:1009B200990018151C248230FC00DD30FD00FD0B6F
:1009C200E02CFC0BE02C0000000012109210C7304B
:1009D20083169200B324B9248316B4012C2465240F
:1009E20001308316C80018200C308316C800182066
:1009F20001308316BA000130BB002330BC00E12075
:100A020002308316B4000D30B500DF30B600D123BA
:100A120002308316B4000E30B5004330B600D12345
:100A220009308316B4000230B500A5230930B400A2
:100A32000230B500CC30B6006E2309308316B40004
:100A42000230B5004430B6006E232730FD00FD0BA6
:100A5200282D0000000009308316B4000230B500D2
:100A6200A5230930B4000230B500CC30B6006E23A5
:100A720009308316B4000230B500BE30B6006E23D2
:100A820009308316B4000230B500FA2170088312CF
:100A9200EE00EF0109308316B4000230B500FA21EE
:100AA2007008F200F10171088312EE077208031850
:100AB200013EEF070924700803197A2D6323700899
:100AC200ED00803070058600861B692D06176A2DA1
:100AD20006137F307005F2007208ED007208F00014
:100AE200F00D70107008ED0070088316B4002C240D
:100AF200822D6E088316B40083126F088316B50028
:060B02003722112D832DA6
:100BCC00203084004A3083120313F0008930EA008D
:100BDC000530EB001024A03084001230F000D3302C
:0A0BEC00EA000530EB0010240800B9
:020B1200A93404
:020B1400A0340B
:020B1600613448
:100B18002034543465346D3470346534723461343F
:100B280074347534723465343A34203420342034C3
:020B3800003487
:100B3A007B342234543465346D3470347234613405
:100B4A00743475347234653422343A3422340034BD
:020B5A0058340D
:060B5C0022347D34003458
:100B620022342C342234503457344D3444347534C6
:0C0B72007434793422343A3422340034D4
:040B7E002E340034DD
:100B82003034303430342E34303430343034303445
:020B920000342D
:100B94003034303430342E34303430343034303433
:020BA40000341B
:100BA6003034303430342E34303430343034303421
:020BB600003409
:100BB8003034303430342E3430343034303430340F
:020BC8000034F7
:04400E00F22F000786
:00000001FF
