:02000000822A52
:0400060000000800EE
:10000A00103083120313FD00FD0B092800000800BD
:10001A00083083120313FC002330FD00FD0B132864
:06002A00FC0B1328080086
:1000300083120313E21B1E2886111F288615621BDC
:100040002328061124280615E21A282886102928B4
:100050008614621A2D2806102E28061457183228E6
:10006000061633280612861603208612E2193A284D
:1000700086113B28861562193F280611402806156F
:10008000E21844288610452886146218492806106C
:100090004A28061457184E2806164F2806128616A8
:1000A00003208612571C56280D20572805200800CB
:1000B000193083120313FD00FD0B5C2800000000C3
:0200C000080036
:1000C200A53083120313FD00FD0B6528000000001C
:0200D200080024
:1000D40083120313FB01FA01F9018030F800F10CDB
:1000E400F00C031C7E287408F90775080318750FB3
:1000F400FA070318FB0A0310F01F86287408FA078E
:1001040075080318750FFB07FB0CFA0CF90CF80CB7
:10011400031C71287B08F3007A08F2007908F100C7
:060124007808F00008005D
:0E012A00831203135A088A0059088200080045
:100138008312031357106108E200182057140800AF
:10014800831203131A08F100981CAC281812181609
:060158007108F000080030
:10015E0083160313861206120610861006118611D8
:10016E0083128612061286110611861006100D20B5
:10017E000D200D20861406148616032086120D20DF
:10018E008616032086120D208616032086120D2059
:10019E0006108616032086120D2086160320861260
:1001AE00861086158616032086120D2086110614DB
:1001BE0086160320861206108616032086120D2040
:1001CE0086160320861206148616032086120D202C
:1001DE00061086160320861286150615861406143A
:0C01EE008616032086120D20571408000E
:0C01FA00831203139501171297120800DE
:1002060083160313981809290000032983125B0833
:040216009900080043
:10021A001F29803083120313DB003229C030DB0030
:10022A0032299430DB003229D430DB003229803085
:10023A00DB003229831203135B08013A03190E29E2
:10024A005B08023A031913295B08033A03191629B2
:10025A005B08043A031919291C295C03F0005B089E
:10026A00F0077008DB007008E20018205710DE0162
:10027A005E085D078400000803194B295E085D07C4
:10028A0084000008E1009C20DE0A3D29571408007A
:10029A0083160313981690308312980083168717D3
:1002AA00071383128C1E5C291A08F00056290800CD
:0E02BA000030831203138C1A0130F00008008C
:1002C800831203135C08F1000130F0007108031970
:1002D8007129F00D7010FF3E6B297008DE00F009DF
:1002E8005B08840070088005841770088005612009
:1002F8005E088004841358205E080005DD005D0850
:10030800003A013003190030DD0061205D08F0007B
:020318000800DB
:10031A00831203135C08F1000130F000710803191D
:10032A009A29F00D7010FF3E94297008E000F00938
:10033A007008DF005B088400700880058417DE01FE
:10034A005E08073C031CBF295E08F0005D08F10047
:10035A0070080319B429F10CF113FF3EAE295F08A6
:10036A008005711CBA29600880045820600880043E
:0C037A00DE0AA5298413052005200800D8
:10038600831203135C08F1000130F00071080319B1
:10039600D029F00D7010FF3ECA297008E0007009E0
:1003A600DF005B088400DE01DD015D08073C031CFD
:1003B600FC295F08800584175F0880050320600814
:1003C60080040320841360080005F0000319F8294F
:1003D6005D08F1000130F00071080319F629F00DEF
:1003E6007010FF3EF0297008DE0405200520DD0AA6
:0803F600D8295E08F0000800A0
:1003FE0095208A110A128000840AD90A0319DA0A92
:08040E00F003031DFF290800A3
:10041600831603130711831212150C309704080074
:10042600252A803083120313DB00382AC030DB0014
:10043600382A9430DB00382AD430DB00382A803062
:10044600DB00382A831203135B08013A0319142AC6
:100456005B08023A0319192A5B08033A03191C2A96
:100466005B08043A03191F2A222A5C03F0005B0882
:10047600F0077008DB0057147008E20018205710C8
:0A0486005D08E2001820571408007A
:10049000831603131208013EF000F1010318F10A5C
:1004A00083125B08F400F5016A200630F200700840
:1004B000F4007108F50072080319632AF50CF40CB6
:1004C000F513FF3E5C2A0430F1007408F000710857
:1004D00003196E2AF00D7010FF3E682A3030700547
:1004E000F3007408F0007508F100F10CF00CF11342
:1004F000F10CF00CF113700895000F30970573089C
:040500009704080054
:100504006C238316031788018901831287138813C8
:1005140083160313870183128701FF308316880033
:10052400831288018316860183128601193083168B
:10053400990018154D218230FC00DD30FD00FD0BC3
:10054400A12AFC0BA12A0000000012109210C7304F
:1005540083169200FD200B22DB014822AF200130DC
:10056400E20018200C30E20018200130DB000130DA
:10057400DC002030DD000D210230DB000D30DC001A
:10058400DF30DD0013220230DB000E30DC004330AC
:10059400DD0013220930DB000230DC006421093065
:1005A400DB000230DC00CC30DD008D210930DB00C3
:1005B4000230DC004430DD008D212730FD00FD0BCE
:1005C400E12A000000000930DB000230DC00642175
:1005D4000930DB000230DC00CC30DD008D21093035
:1005E400DB000230DC00BE30DD008D210930DB0091
:1005F4000230DC00C3217008D500D6010930DB00CD
:100604000230DC00C3217008F200F1017108D50743
:1006140072080318013ED6075D21700803192F2BB9
:10062400A4207008D8007008DB000321803058052E
:100634008600861B1F2B0617202B06137F305805B8
:10064400F2007208D8007208F000F00D7010700803
:0E065400D8007008DB0048222F2BCC2A302B58
:1006D80020308400353083120313F0003630D900FF
:0806E8000330DA00FF210800D5
:10066C002034543465346D347034653472346134F0
:10067C0074347534723465343A3420342034203474
:02068C00003438
:10068E003034303430342E3430343034303430343E
:02069E00003426
:1006A0003034303430342E3430343034303430342C
:0206B000003414
:1006B2003034303430342E3430343034303430341A
:0206C200003402
:1006C4003034303430342E34303430343034303408
:0206D4000034F0
:04400E00F22F000786
:00000001FF
