:02000000B92B1A
:10000800FF00030E83018316A6000A08A5008A01D3
:1000180070088312A2007108A1007208A0008C1E4B
:100028003428AE2370088316A20083128615803008
:1000380070058600861B22280617232806137F30A2
:100048007005F20072088316A2007208F000F00D25
:1000580070107008A20070088312A600A70186110C
:100068002208F0002108F1002008F2008316250874
:0C0078008A00260E8300FF0E7F0E090098
:1000840083120313F801F9011030FC00710DF80D0F
:10009400F90D7408F8027508031C750FF9020318AA
:1000A4005A287408F80775080318750FF907031020
:0A00B400F00DF10DFC0B48280800C8
:1000BE00831603139818652800005F2836088312EC
:0400CE00990008008D
:1000D20083160313B901053039020318772839084A
:1000E2003807840020308000B90A6C2839083807A4
:1000F20084008001B90339083807BA000A30F400D5
:10010200F5013608F0003708F10042207808F000C7
:100112007908F1003030F00783163A08840070083D
:1001220080000A30F400F5013608F0003708F100CB
:10013200422070088316B6007108B70000307106BD
:10014200031DA52800307006031DA828AA28B9039C
:040152007C280800FD
:1001560083160313AF012D0884000008AE002E0895
:10016600003A0319C1282E08B6005F208316AF0A8D
:0E0176002F082D0784000008AE00B2280800F4
:1001840083160313B201B3012D08B4002E08B50081
:1001940080302E06F00080307002031DD32800301A
:1001A4002D020318E1280130B2000030B3002D08FD
:1001B400003CB4002E08031C013EB501B50234080E
:1001C400B6003508B7002F08B80069200630B00023
:1001D4000030B1003108003C031DF2283008003C17
:1001E40003180D2930082F07F20001303002F00007
:1001F4000030031C013E3102F10070082F07840017
:100204000008F00072088400700880000130B00219
:10021400031CB103EC282F0884002030800032082E
:10022400330403192B29B001B10130082F078400CE
:100234000008203A031D2229B00A0319B10A17291C
:100244000130B002031CB10330082F0784002D30A5
:04025400800008001E
:10025800A53083120313FD00FD0B302900000000B8
:0202680008008C
:04026A000000080088
:10026E0083120313F8010830FC00700DF80D7408AA
:10027E00F80203184429F8070310F00DFC0B3C2973
:02028E00080066
:1002900083120313FB01FA01F9018030F800F10C1D
:1002A000F00C031C5C297408F90775080318750F16
:1002B000FA070318FB0A0310F01F64297408FA07F1
:1002C00075080318750FFB07FB0CFA0CF90CF80CFA
:1002D000031C4F297B08F3007A08F2007908F1002B
:0602E0007808F0000800A0
:1002E600103083120313FD00FD0B77290000080070
:1002F600193083120313FD00FD0B7F290000000057
:020306000800ED
:0E0308008316031321088A00200882000800D3
:1003160083160313A81F9A298312280884002D30F8
:1003260080008316A709A809A70A0319A80A27089F
:10033600F0002808F100F10CF00CF113F10CF00CB0
:10034600F113F10CF00CF113F10CF00CF113700831
:10035600A9006430F400372170080319C22928085F
:100366008316AC006430F4002908F00037213030E1
:10037600F00783162C08840070088000C7298312B2
:1003860028088400303080008312280A8316AC00C7
:100396000A30F4002908F00037210A30F40037212A
:1003A6007808F0003030F00783162C0884007008B7
:1003B60080000230831228078316AC000A30F4004E
:1003C6002908F00037217808F0003030F00783164E
:1003D6002C088400700880002708AA002808AB00B3
:1003E6000F302705F0002808F1000030F1057008ED
:1003F600AA007108AB007130F4000230F500482104
:1004060070088316AA007108AB000430831228070F
:100416008316AC00E830F4000330F500422030309B
:10042600F00783162C0884007008800005308312BC
:1004360028078316AC006430F4000030F5002A0863
:10044600F0002B08F10042200A30F4000030F500DD
:1004560042207808F0007908F1003030F007831662
:100466002C08840070088000063083122807831643
:10047600AC000A30F4000030F5002A08F0002B0822
:10048600F10042200A30F4000030F50042207808DE
:10049600F0007908F1003030F00783162C0884004C
:1004A600700880000730831228078316AC000A30D4
:1004B600F4000030F5002A08F0002B08F100422075
:1004C6007808F0007908F1003030F00783162C0820
:1004D6008400700880008312081DAA2A8316290842
:1004E600AD00AE01831224088316AF00C2202A088D
:1004F600AD002B08AE00831223088316AF00C2207E
:10050600831226088316AD00831227088316AE00D1
:10051600831225088316AF00C2203930AD00AB2008
:10052600831228088316AD00AB202B30AD00AB201C
:10053600831225088316AD00AB204930AD00AB20F1
:100546000A30B6005F200D308316B6005F20080023
:10055600831603132808F1000130F000710803190F
:10056600B82AF00D7010FF3EB22A7008AC00700970
:10057600AB0027088400AA01A9012908073C031C2F
:10058600E52A2B08800584172B08800535212C08C1
:100596008004352184132C080005F0000319E02A95
:1005A6002908F1000130F00071080319DE2AF00D68
:1005B6007010FF3ED82A7008AA047321732183168F
:0A05C600A90AC02A2A08F000080064
:1005D000831603132808F1000130F0007108031995
:1005E000F52AF00D7010FF3EEF2A7008AA00F009FE
:1005F00027088400700880058417700880052C2166
:1006000083162A08800484137B2183162A08000598
:10061000A9002908003A013003190030A9002C2153
:0806200083162908F000080010
:10062800831603131208013EF000F1010318F10AC2
:100638002708F400F50148210630F2007008F4009C
:100648007108F500720803192E2BF50CF40CF5133C
:10065800FF3E272B0430F1007408F00071080319DD
:10066800392BF00D7010FF3E332B30307005F3003E
:100678007408F0007508F100F10CF00CF113F10C9E
:10068800F00CF113700895000F3097057308970464
:02069800080058
:10069A00831603132808F1000130F00071080319CA
:1006AA005A2BF00D7010FF3E542B7008AC00F00965
:1006BA007008AB0027088400700880058417AA0117
:1006CA002A08073C031C802B2A08F0002908F1009D
:1006DA0070080319742BF10CF113FF3E6E2B2B08D3
:1006EA008005711C7A2B2C0880047B2183162C0828
:0E06FA008004AA0A652B841373217321080063
:10070800831603130711831212150C30970408007F
:1007180084218A110A128000840AA00A0319A10AF6
:08072800F003031D8C2B0800F7
:0C073000831203139501171297120800A2
:10073C00831603139816903083129800831687172C
:10074C00071383128C1EAD2B1A08F000A72B080080
:10075C00831203131A08F100981CB62B18121816E2
:06076C007108F000080016
:10077200B62483160317880189018312871388130D
:1007820083160313870183128701FF3083168800C3
:100792008312880183168601FF308312860003309C
:1007A200FB008A30FC005530FD00FD0BD62BFC0B04
:1007B200D62BFB0BD62B0000000086018B170B17E4
:1007C20083168C161930990018159E238230FC006E
:1007D200DD30FD00FD0BEB2BFC0BEB2B00000000D2
:1007E20012109210C7308316920098238423831626
:1007F200A70114238030F00080302A067002031D06
:10080200042C29080A3C03185A2C09308316A70025
:100812000230A800E8220930A7000230A800CC303C
:10082200A9004D2309308316A7000230A8004430E6
:10083200A9004D232730FD00FD0B1D2C00000000F8
:1008420009308316A7000230A800E8220930A70069
:100852000230A800CC30A9004D2309308316A7002E
:100862000230A800BE30A9004D2309308316A7002C
:100872000230A800AB227008A300A4010930A7002F
:100882000230A800AB227008F300F20123087207BD
:10089200F00073080318013E2407F1007008A3005A
:1008A2007108A4007008A7007108A8008B21A90193
:1008B200AA01A90A0319AA0A26088316A700142363
:0608C2006400FB2B632C17
:10096C00233084004D3083120313F000693083165A
:0A097C00A0000430A1008C23080045
:0208D200673489
:0208D4004C34A2
:0208D6005E348E
:0408D80000340034B4
:0208DC00553491
:0408DE0000340034AE
:1008E20022342C342234503457344D344434753449
:0C08F2007434793422343A342234003457
:1008FE007B342234543465346D3470347234613444
:10090E00743475347234653422343A3422340034FB
:06091E0022347D34003498
:100924003034303430342E343034303430343034A5
:0209340000348D
:100936003034303430342E34303430343034303493
:0209460000347B
:100948003034303430342E34303430343034303481
:02095800003469
:10095A003034303430342E3430343034303430346F
:02096A00003457
:04400E00FA2F00077E
:00000001FF
